{
  "contractName": "Lottery",
  "abi": [
    {
      "inputs": [],
      "stateMutability": "nonpayable",
      "type": "constructor"
    },
    {
      "inputs": [
        {
          "internalType": "uint256",
          "name": "",
          "type": "uint256"
        }
      ],
      "name": "lotteryHistory",
      "outputs": [
        {
          "internalType": "address payable",
          "name": "",
          "type": "address"
        }
      ],
      "stateMutability": "view",
      "type": "function",
      "constant": true
    },
    {
      "inputs": [],
      "name": "lotteryId",
      "outputs": [
        {
          "internalType": "uint256",
          "name": "",
          "type": "uint256"
        }
      ],
      "stateMutability": "view",
      "type": "function",
      "constant": true
    },
    {
      "inputs": [],
      "name": "owner",
      "outputs": [
        {
          "internalType": "address",
          "name": "",
          "type": "address"
        }
      ],
      "stateMutability": "view",
      "type": "function",
      "constant": true
    },
    {
      "inputs": [
        {
          "internalType": "uint256",
          "name": "",
          "type": "uint256"
        }
      ],
      "name": "players",
      "outputs": [
        {
          "internalType": "address payable",
          "name": "",
          "type": "address"
        }
      ],
      "stateMutability": "view",
      "type": "function",
      "constant": true
    },
    {
      "inputs": [
        {
          "internalType": "uint256",
          "name": "lottery",
          "type": "uint256"
        }
      ],
      "name": "getWinnerByLottery",
      "outputs": [
        {
          "internalType": "address payable",
          "name": "",
          "type": "address"
        }
      ],
      "stateMutability": "view",
      "type": "function",
      "constant": true
    },
    {
      "inputs": [],
      "name": "getBalance",
      "outputs": [
        {
          "internalType": "uint256",
          "name": "",
          "type": "uint256"
        }
      ],
      "stateMutability": "view",
      "type": "function",
      "constant": true
    },
    {
      "inputs": [],
      "name": "getPlayers",
      "outputs": [
        {
          "internalType": "address payable[]",
          "name": "",
          "type": "address[]"
        }
      ],
      "stateMutability": "view",
      "type": "function",
      "constant": true
    },
    {
      "inputs": [],
      "name": "enter",
      "outputs": [],
      "stateMutability": "payable",
      "type": "function",
      "payable": true
    },
    {
      "inputs": [],
      "name": "getRandomNumber",
      "outputs": [
        {
          "internalType": "uint256",
          "name": "",
          "type": "uint256"
        }
      ],
      "stateMutability": "view",
      "type": "function",
      "constant": true
    },
    {
      "inputs": [],
      "name": "pickWinner",
      "outputs": [],
      "stateMutability": "nonpayable",
      "type": "function"
    }
  ],
  "bytecode": "0x608060405234801561001057600080fd5b5033600160006101000a81548173ffffffffffffffffffffffffffffffffffffffff021916908373ffffffffffffffffffffffffffffffffffffffff1602179055506001600281905550610b3b806100696000396000f3fe6080604052600436106100915760003560e01c80638da5cb5b116100595780638da5cb5b1461017d578063dbdff2c1146101a8578063e580f47b146101d3578063e97dcb62146101fe578063f71d96cb1461020857610091565b806312065fe014610096578063281d098d146100c15780635d495aea146100fe5780636d6fe230146101155780638b5b9ccc14610152575b600080fd5b3480156100a257600080fd5b506100ab610245565b6040516100b8919061074a565b60405180910390f35b3480156100cd57600080fd5b506100e860048036038101906100e39190610796565b61024d565b6040516100f59190610804565b60405180910390f35b34801561010a57600080fd5b5061011361028a565b005b34801561012157600080fd5b5061013c60048036038101906101379190610796565b610491565b6040516101499190610804565b60405180910390f35b34801561015e57600080fd5b506101676104c4565b60405161017491906108dd565b60405180910390f35b34801561018957600080fd5b50610192610552565b60405161019f9190610920565b60405180910390f35b3480156101b457600080fd5b506101bd610578565b6040516101ca919061074a565b60405180910390f35b3480156101df57600080fd5b506101e86105cd565b6040516101f5919061074a565b60405180910390f35b6102066105d3565b005b34801561021457600080fd5b5061022f600480360381019061022a9190610796565b61064b565b60405161023c9190610804565b60405180910390f35b600047905090565b60006003600083815260200190815260200160002060009054906101000a900473ffffffffffffffffffffffffffffffffffffffff169050919050565b600160009054906101000a900473ffffffffffffffffffffffffffffffffffffffff1673ffffffffffffffffffffffffffffffffffffffff163373ffffffffffffffffffffffffffffffffffffffff16146102e457600080fd5b600080805490506102f3610578565b6102fd919061096a565b9050600081815481106103135761031261099b565b5b9060005260206000200160009054906101000a900473ffffffffffffffffffffffffffffffffffffffff1673ffffffffffffffffffffffffffffffffffffffff166108fc479081150290604051600060405180830381858888f19350505050158015610383573d6000803e3d6000fd5b50600081815481106103985761039761099b565b5b9060005260206000200160009054906101000a900473ffffffffffffffffffffffffffffffffffffffff1660036000600254815260200190815260200160002060006101000a81548173ffffffffffffffffffffffffffffffffffffffff021916908373ffffffffffffffffffffffffffffffffffffffff16021790555060026000815480929190610429906109f9565b9190505550600067ffffffffffffffff81111561044957610448610a41565b5b6040519080825280602002602001820160405280156104775781602001602082028036833780820191505090505b506000908051906020019061048d92919061068a565b5050565b60036020528060005260406000206000915054906101000a900473ffffffffffffffffffffffffffffffffffffffff1681565b6060600080548060200260200160405190810160405280929190818152602001828054801561054857602002820191906000526020600020905b8160009054906101000a900473ffffffffffffffffffffffffffffffffffffffff1673ffffffffffffffffffffffffffffffffffffffff16815260200190600101908083116104fe575b5050505050905090565b600160009054906101000a900473ffffffffffffffffffffffffffffffffffffffff1681565b6000600160009054906101000a900473ffffffffffffffffffffffffffffffffffffffff16426040516020016105af929190610ad9565b6040516020818303038152906040528051906020012060001c905090565b60025481565b662386f26fc1000034116105e657600080fd5b6000339080600181540180825580915050600190039060005260206000200160009091909190916101000a81548173ffffffffffffffffffffffffffffffffffffffff021916908373ffffffffffffffffffffffffffffffffffffffff160217905550565b6000818154811061065b57600080fd5b906000526020600020016000915054906101000a900473ffffffffffffffffffffffffffffffffffffffff1681565b828054828255906000526020600020908101928215610703579160200282015b828111156107025782518260006101000a81548173ffffffffffffffffffffffffffffffffffffffff021916908373ffffffffffffffffffffffffffffffffffffffff160217905550916020019190600101906106aa565b5b5090506107109190610714565b5090565b5b8082111561072d576000816000905550600101610715565b5090565b6000819050919050565b61074481610731565b82525050565b600060208201905061075f600083018461073b565b92915050565b600080fd5b61077381610731565b811461077e57600080fd5b50565b6000813590506107908161076a565b92915050565b6000602082840312156107ac576107ab610765565b5b60006107ba84828501610781565b91505092915050565b600073ffffffffffffffffffffffffffffffffffffffff82169050919050565b60006107ee826107c3565b9050919050565b6107fe816107e3565b82525050565b600060208201905061081960008301846107f5565b92915050565b600081519050919050565b600082825260208201905092915050565b6000819050602082019050919050565b610854816107e3565b82525050565b6000610866838361084b565b60208301905092915050565b6000602082019050919050565b600061088a8261081f565b610894818561082a565b935061089f8361083b565b8060005b838110156108d05781516108b7888261085a565b97506108c283610872565b9250506001810190506108a3565b5085935050505092915050565b600060208201905081810360008301526108f7818461087f565b905092915050565b600061090a826107c3565b9050919050565b61091a816108ff565b82525050565b60006020820190506109356000830184610911565b92915050565b7f4e487b7100000000000000000000000000000000000000000000000000000000600052601260045260246000fd5b600061097582610731565b915061098083610731565b9250826109905761098f61093b565b5b828206905092915050565b7f4e487b7100000000000000000000000000000000000000000000000000000000600052603260045260246000fd5b7f4e487b7100000000000000000000000000000000000000000000000000000000600052601160045260246000fd5b6000610a0482610731565b91507fffffffffffffffffffffffffffffffffffffffffffffffffffffffffffffffff8203610a3657610a356109ca565b5b600182019050919050565b7f4e487b7100000000000000000000000000000000000000000000000000000000600052604160045260246000fd5b60008160601b9050919050565b6000610a8882610a70565b9050919050565b6000610a9a82610a7d565b9050919050565b610ab2610aad826108ff565b610a8f565b82525050565b6000819050919050565b610ad3610ace82610731565b610ab8565b82525050565b6000610ae58285610aa1565b601482019150610af58284610ac2565b602082019150819050939250505056fea26469706673582212208997b66fa6f1d355d6f9916d3aa408f1ce86b76b63c70ac1d8475937e43cf3d064736f6c63430008110033",
  "immutableReferences": {},
  "source": "// SPDX-License-Identifier: MIT\r\n\r\n// Lottery Smart Contract\r\n\r\npragma solidity ^0.8.0;\r\n\r\n// Create Lottery Smart Contract\r\ncontract Lottery {\r\n\r\n    // Declare players and owner and Lottery ID\r\n    address payable[] public players;\r\n    address public owner;\r\n    uint public lotteryId;\r\n\r\n    // Create mapping to allow to record Lottery Winner History\r\n    mapping (uint => address payable) public lotteryHistory;\r\n\r\n    // Define Constructor\r\n    constructor() {\r\n        // Get and define owners address\r\n        owner = payable(msg.sender);\r\n        // Set initial lottery ID to 1\r\n        lotteryId = 1;\r\n    }\r\n\r\n    // Function that returns winner based on lottery ID\r\n    function getWinnerByLottery(uint lottery) public view returns (address payable) {\r\n        return lotteryHistory[lottery];\r\n    }\r\n\r\n    // Function to return contracts balance\r\n    function getBalance() public view returns (uint) {\r\n        return address(this).balance;\r\n    }\r\n\r\n    // Function to return current lottery's players\r\n    function getPlayers() public view returns (address payable[] memory){\r\n        return players;\r\n    }\r\n\r\n    // Function to enter lottery\r\n    function enter() public payable {\r\n        // Require minimum value to enter\r\n        require(msg.value > .01 ether);\r\n        // add address of player entering lottery into players list\r\n        players.push(payable(msg.sender));\r\n    }\r\n\r\n    // Function to get pseudo-random number\r\n    function getRandomNumber() public view returns (uint) {\r\n        // Returns result of keccak256 hashing algorith \r\n        // (hash concactenation of owner adress and block timestamp)\r\n        return uint(keccak256(abi.encodePacked(owner, block.timestamp)));\r\n    }\r\n\r\n    // Function to pick winner - apply onlyOwner modifier \r\n    function pickWinner() public onlyOwner {\r\n        // Determine pseudo-randomly index of winner \r\n        uint index = getRandomNumber() % players.length;\r\n        // Transfer contracts balance to winners address\r\n        players[index].transfer(address(this).balance);\r\n        // Update lottery history\r\n        lotteryHistory[lotteryId]= players[index];\r\n        // Increment lottery id by 1\r\n        lotteryId++; \r\n        // Reset state of contract (resets players list) - prepares for next round\r\n        players = new address payable[](0);\r\n    }\r\n\r\n    // Create reusable modifier that makes it so only the owner could execute function\r\n    modifier onlyOwner() {\r\n        // Requires that only the owner can execute this function\r\n        require(msg.sender == owner);\r\n        _; // Apply to remainder of code in function\r\n    }\r\n}",
  "sourcePath": "C:\\users\\Peter\\Web3\\Lottery\\lottery\\contracts\\Lottery.sol",
  "compiler": {
    "name": "solc",
    "version": "0.8.17+commit.8df45f5f.Emscripten.clang"
  },
  "schemaVersion": "3.4.10",
  "updatedAt": "2022-10-25T17:49:28.218Z",
  "networkType": "ethereum",
  "devdoc": {
    "kind": "dev",
    "methods": {},
    "version": 1
  },
  "userdoc": {
    "kind": "user",
    "methods": {},
    "version": 1
  }
}